{"abi":[{"type":"constructor","inputs":[{"name":"initialAddress","type":"address","internalType":"address"},{"name":"initialNumber","type":"uint256","internalType":"uint256"}],"stateMutability":"nonpayable"},{"type":"function","name":"increment","inputs":[],"outputs":[],"stateMutability":"nonpayable"},{"type":"function","name":"numbers","inputs":[{"name":"","type":"address","internalType":"address"}],"outputs":[{"name":"","type":"uint256","internalType":"uint256"}],"stateMutability":"view"},{"type":"function","name":"setNumber","inputs":[{"name":"newNumber","type":"uint256","internalType":"uint256"}],"outputs":[],"stateMutability":"nonpayable"}],"bytecode":{"object":"0x6080604052348015600e575f80fd5b506040516101e63803806101e6833981016040819052602b916048565b6001600160a01b039091165f90815260208190526040902055607d565b5f80604083850312156058575f80fd5b82516001600160a01b0381168114606d575f80fd5b6020939093015192949293505050565b61015c8061008a5f395ff3fe608060405234801561000f575f80fd5b506004361061003f575f3560e01c80633fb5c1cb14610043578063d09de08a14610064578063e349fe3a1461006c575b5f80fd5b6100626100513660046100be565b335f90815260208190526040902055565b005b61006261009d565b61008b61007a3660046100d5565b5f6020819052908152604090205481565b60405190815260200160405180910390f35b335f9081526020819052604081208054916100b783610102565b9190505550565b5f602082840312156100ce575f80fd5b5035919050565b5f602082840312156100e5575f80fd5b81356001600160a01b03811681146100fb575f80fd5b9392505050565b5f6001820161011f57634e487b7160e01b5f52601160045260245ffd5b506001019056fea2646970667358221220b1cc40b9bbac5e16de00f861503be020c311a7ea59a606e30fd4868a8b4e5c4764736f6c634300081a0033","linkReferences":{}},"methodIdentifiers":{"increment()":"d09de08a","numbers(address)":"e349fe3a","setNumber(uint256)":"3fb5c1cb"},"id":20}